S016000075436869705667615465747269732E737265637C
S214006000C87D002001610000FD600000FD6000000A
S214006010000000000000000000000000000000007B
S214006020000000000000000000000000FD6000000E
S2140060300000000000000000FD600000FD600000A1
S214006040FD600000FD600000FD600000FD600000D7
S214006050FD600000FD600000FD600000FD600000C7
S2140060603DB70000FD600000FD600000FD60000020
S214006070FD6000000000000000000000FD60000061
S21400608051000020FD600000FD600000FD60000083
S214006090FD6000000000000000000000FD60000041
S2140060A0FD600000FD600000FD600000FD60000077
S2140060B00000000010B5064C2378002B07D1054BD6
S2140060C0002B02D0044800E000BF0123237010BD5F
S2140060D04006002000000000D0F60100044B10B57A
S2140060E0002B03D00349044800E000BF10BDC046A3
S2140060F00000000044060020D0F60100FEE7C0467F
S21400610025492648F8B5814209D0254A904206D24C
S214006110013A121A920801329200224B98472248FE
S214006120224A904207D2013A121A9208013292008D
S21400613000211F4B9847FF221E4B022193431E4A05
S21400614003259360902302240C2708261B4A5B0035
S214006150D1501B4AD378AB432343D370D378BB4389
S2140061603343D3703022174B987B90432022104342
S2140061709873997BB9433143997380219A7BAA43DC
S21400618022439A73104A53680B4353600F4B984749
S2140061900F4B9847FEE7C046D0F6010010000020DF
S2140061A014060020B5BC00004006002044790020FC
S2140061B05DBD00000060000000ED00E000700041E2
S2140061C000500041004800410040004171BC000002
S2140061D0D961000005207047F0B5DE464E464546BC
S2140061E05746E0B564488BB0644B98476448654BA7
S2140061F09847654B05AC9B469847644B8246984744
S214006200002301930093624B624D9946624B634EA6
S214006210984607E0B047002823D143461A68604BEB
S2140062209A4212D9D8475F4B070098475E4B98476B
S214006230A847002860D05D4B98475D4B984753466B
S214006240FA22FB1A920093426AD8C847A847002849
S214006250E0D0584B984702A8574B9847B0470028BD
S214006260DBD0564B9847564B20009847002202AB8F
S2140062701A800621625E0C20215E23688A425BD06B
S2140062800E27E05F904270D0012294460022042739
S214006290E05F81425AD00E27E15F814204D164213B
S2140062A0520002A881526246082B56D0082B12D9FB
S2140062B0202B58D019D9802149008B4251D0414912
S2140062C08C46634459424B416D215B421940520053
S2140062D002AB9952A1E7022B41D06721042BF6D0DE
S2140062E0013B59424B415901F1E7103B5942594194
S2140062F02B2349421940EAE7B04703000020002B51
S2140063009BD002AB1B88019A934296D018B2019399
S214006310274B98475346FA22FB1A9200934294D989
S214006320009B9A461800284B9847524601239B1A12
S214006330DBB20093BA4688E7772202A802800427D9
S214006340E05F753A9446013A8142A4D16121520039
S21400635002A881526246082BA8D16821B7E77721A8
S214006360B5E72021B3E72D21B1E7732202A802800A
S214006370713A9446013A8AE78835010035B1000043
S214006380B0290100699D00003DB300004D85000066
S214006390D1B40000D9B30000C059002029B40000D1
S2140063A00A02000051B70000799F0000E9B3000020
S2140063B00D860000F9B3000009B4000039B40000EF
S2140063C049B4000000FEFFFF8DB300000A207047AE
S2140063D00D20704710B58023541EA24100B2D2B2E1
S2140063E05B02014CA04710BD59A50000F0B557460A
S2140063F04E464546DE46E0B5DC4B93B00F9119009D
S214006400B8227131FF310E904878B82152009A5C5C
S21400641000021043D64A515C0431C9B20091B9213A
S21400642049005C5C19007331FF3149780902214349
S214006430B924145D0434E4B20194BA2464001D5DEA
S2140064401C007534FF34647824022C43A446BA2416
S214006450145D0434E4B20294BB2464001D5D1C0089
S2140064607734FF34647824022C430894BB24145DEC
S2140064700434E5B2BC24640003951D5D1C00793429
S214006480FF34647824022C430A94BC24145D04343C
S214006490E5B2BD2464001E1904951D5D74782402BF
S2140064A02600BD24145D2E430434E5B2BE246400E9
S2140064B01F190B9605951D5D7C7824022700BE24C7
S2140064C0145D2F430434E5B2BF2464001C5D7F33A3
S2140064D0FF335B7806951B021D00BF23D35C0C9729
S2140064E00433DAB20792A34A25439246A24A0D9590
S2140064F093465246A032170052464132FF321600EB
S2140065005246E132FF32089B15009C4A544691469B
S2140065101A040A9B09921A040B9B0A921A040C9BF3
S2140065200B921A040D9B0C921B040D930304034359
S21400653008930B040B431A00634661461B04194379
S2140065400B005946D84692469B4610941191089BDC
S2140065500A2223606360A360E360236100994046DB
S214006560C8475346404623656365A365E3652366CF
S2140065700A2201992830C8475B4640463B607B604C
S214006580BB60FB603B610A2202995030C847404618
S214006590099A0399130C13433B657B65BB65FB6542
S2140065A03B660A227830C84740460A9A0499130C7C
S2140065B0134333607360B360F36033610A22A03024
S2140065C0C84740460B9A0599130C13433365736509
S2140065D0B365F36533660A22C830C84740460C9A4E
S2140065E00699130C13432B606B60AB60EB602B615A
S2140065F00A22F030C84740460D9A1930130C134350
S2140066002B656B65AB65EB652B66FF300A22079939
S214006610C847A0239B009C46413BFF3B64449C46E6
S2140066204133FF33E0449C46554B6744664465441B
S214006630A3428CD1109B0F9D9A46119B9B46002D22
S21400664000D184E00E994F4B8A00D0584B004E493B
S2140066505C5A002D43DD4D494D4B5E46D35852588B
S21400666029008C465146AD006544AD00ED181F88E4
S2140066700F8017783A3737705F884F8057783A37E9
S21400668077709F888F8097783A37B770DF88CF808B
S214006690D7783A37F7701F890F8117793A373771ED
S2140066A05F894F8157793A3777719F898F819779BC
S2140066B03A37B771DF89CF81D7793A37F7711F8AB2
S2140066C00F82177A3A3737725F8A14334F82577AB7
S2140066D050313A3777720A322836AB42C7D1002893
S2140066E035D080222300D200944200D91300002C1B
S2140066F02DD004000721274A5D1E144321404C423A
S21400670061410B24AC42A44164420C4226D00021D5
S21400671004000D000834A2424D412C001500083537
S214006720A8424941214319D0060017005908C9005C
S214006730091830CE30C7B142FBD101211C008C4372
S214006740A10040185218A34201D00368136013B08A
S2140067503CBC90469946A246AB46F0BD00219B0045
S2140067604458545004318B42FAD1F0E7E0E101007E
S214006770C0DD0100782E00207C6B00205DBD00008F
S214006780784700202400002084BF0000100000206E
S21400679038000020604D0020B823F0B557464E461E
S2140067A04546DE46A34A5B00D25CA24BE0B5713399
S2140067B0FF335B7895B01B0213430193B8239E4AC0
S2140067C0D35C9C4A0433DBB20293B9235B00D25CF1
S2140067D0984B7333FF335B781B0213430393B92341
S2140067E0954AD35C934A0433DBB20493BA235B0026
S2140067F0D25C904B7533FF335B781B0213430593D3
S214006800BA238D4AD35C8B4A0433DBB20693BB2390
S2140068105B00D25C874B7733FF335B781B021343F6
S2140068200793BB23844AD35C824A0433DBB20893C3
S214006830BC235B00D25C7F4B7933FF335B781B0253
S21400684013430993BC237C4AD35C7A4A0433DBB2F5
S2140068500A93BD235B00D25C764B7B33FF335B78B9
S2140068601B0213430B93BD23734AD35C714A043354
S214006870DBB20C93BE235B00D25C6E4B7D33FF33E2
S2140068805B781B0213430D93BE236B4AD35C694AA5
S2140068900433DBB20E93BF235B00D25C654B7F33C1
S2140068A0FF335B781B0213430F93BF23624AD35C0C
S2140068B00433DBB21093614B1193614B13930023A7
S2140068C012935E339A462F3B99467F339846129B27
S2140068D013999C469E005B4B66449C460123664487
S2140068E0119A00249C4636E01B093CD1019B039874
S2140068F0D381029B0134CB715346D0524B46049849
S214006900C85443460598D0525720069B0B54FE2386
S2140069100798D05208987F3BC8540998CF33D05276
S2140069200A98A73BC8540B98F733D0520C98CF3B25
S214006930C8540D982033FF33D0520E98F73BC854F6
S214006940414B0F98D05220231098FF33C854023280
S21400695001310A2C57D060466310F35C2042C3D145
S2140069600F200340C2D0334D013BAB46324D1801D9
S2140069705844AB4657460588DB005B44D5811D78F6
S21400698001340435CD714588D5534F465D780435BE
S214006990CD5547468588D55357279D780435CD5520
S2140069A0C588AB46FE255F4657537F27DD780435FE
S2140069B0CD550589AB46A7255F466D005753A727DB
S2140069C01D790435CD554589AB46CF255F466D000C
S2140069D05753CF275D790435CD558589AB46F725C6
S2140069E05F466D005753F7279D790435CD55C58909
S2140069F0154815522020DB79FF3004330B54023241
S214006A0001310A2CA7D1A02189008C46119A129B2D
S214006A1062441192139A01334132FF321293139259
S214006A20142B00D053E715B03CBC90469946A246BE
S214006A30AB46F0BDE0E10100C0DD010040150020DE
S214006A40E05E0020080700203E020000F023D84A3F
S214006A50F0B5D35CF032517857464E464546DE4692
S214006A60090219437823E0B5D24A95B0D35CD04AE0
S214006A700433DBB20493F223D35CF2325278CD486F
S214006A8012021A437923C35CC9480433DBB2059368
S214006A90F423C05CC64BC74CF4335B781B0203433D
S214006AA07A20205CC24C0430C0B20690F620245CEB
S214006AB0BF48F63040780002204384467B20BD4C19
S214006AC0205CBB4C0430C0B20790F820245CB84869
S214006AD0F8304078000220430C907C20B54CB44D32
S214006AE0205CFA350430C4B2FA200894B04CB04E9C
S214006AF0245C6878FC36000205007D202543AD4CFA
S214006B00AB4F205CFE370430C4B2FC200994A84C7E
S214006B100D95245C7078A84D000206007E20264362
S214006B20A44C0E96205C50260430C4B2FE200A9474
S214006B309F4CB046245C7878A844000207007F206B
S214006B4027439C4C4646205C13970430C4B26046EC
S214006B509A4F0B94B8462F00994C00040294039663
S214006B600F900C985026000410900D98E13F0004FA
S214006B7011900E98FF3F000412901398764200047E
S214006B80139008040843110411431A041A433B00E7
S214006B90B346B619B246503EB1462E00A844474604
S214006BA09846884C413E2C19AB44AA44A944FF3E63
S214006BB00C900D910E9243460C9A04C4A342FCD14D
S214006BC0029898461938804B28220499FF3898472F
S214006BD00D9B08C4A742FCD102987B4B282205993E
S214006BE0F03898470E9B08C4B442FCD1029828227D
S214006BF0754B0699C83898470F9A3400130C134300
S214006C004A4608C4A242FCD102986F4B91460799A7
S214006C102822A0389847109A130C1343524608C4EB
S214006C20A242FCD10298684B9246089928227838EE
S214006C309847119A130C13435A4608C4A242FCD133
S214006C400298614B93460999282250389847129A21
S214006C50130C134308C4A542FCD1029828225A4BB1
S214006C600A9928389847139A130C1343039A08C4B2
S214006C70A242FCD128220B990298534CA047029BB3
S214006C804133FF330293A0239B009C46039B65443D
S214006C90634403934D4BE344E244E1446644674453
S214006CA0E0449D4202D0474BEC1884E728239C46DC
S214006CB050339A462833464E99462833984628330A
S214006CC09B46B4443700002364465037B244B14470
S214006CD0B044B3440493049B3E4A9C46D25C3E496F
S214006CE002929A0062448C463148D201624484463D
S214006CF09B101901614405912E49DB008C468C21BE
S214006D00490063448C46B4446146069303910023CD
S214006D10A44642E00499052900DC8FE00699059810
S214006D205025048814800C780434F4544488545352
S214006D3065464C780434EC54A025848854538C78EB
S214006D40C5880434FC54F02415535546CC780434D6
S214006D50EC54A0240589640015534D460C79043480
S214006D60EC54C82445896400155345464C790434D0
S214006D70EC54F0248589640015535D468C79C979F6
S214006D800434EC54C4898C208000145203980431D7
S214006D90C15401330232082B24D007210120C91A1E
S214006DA08840010002980842B4D10C490C48B7E765
S214006DB0E0E10100C0DD0100700D002070FEFFFF65
S214006DC0F85A0020D0FDFFFF5DBD0000F04B00200C
S214006DD0E0590020BCD90100400B002038DE01003D
S214006DE0D0E20100A022520064469446049B41363D
S214006DF001330493FF366444BF18E244E144E044A0
S214006E00E344192B00D066E7002601250D4B984772
S214006E100D4C019600950C2315220C490020A04726
S214006E20019600950C231C2209490020A04715B0A6
S214006E303CBC90469946A246AB46F0BD054906487E
S214006E406EE7C0469967000065B7000080DB01006A
S214006E5088DB0100C0DD0100E0E10100F0B5DE46A0
S214006E6057464E464546E0B58FB007920022089337
S214006E7043B20992002B03DA7F2318407E3B099326
S214006E8084002018DB4B40001A18140024342478A1
S214006E900694002C00D180E1253212780592002A53
S214006EA000D17AE1079D2600AC46089F6644BC46A2
S214006EB06444029525001C00059B01971A00624455
S214006EC00C92013A0A92079A0027944663441C34AF
S214006ED00D93013B24180B930397022900D173E10D
S214006EE0032900D16BE1012900D15DE10298089ADF
S214006EF0013D013E2378002B00D195E004329446F4
S214006F00BD4F92006244BC46073092011218BB4F38
S214006F1050006044BC46099F6244002F00D148E1FF
S214006F200F331F01B846B64FBC46B64FC444B846EA
S214006F306746DB003F884344078004931F78B846C3
S214006F400427B946C844474617705027B9466746CF
S214006F507F88B8464F464346C353049B5B789846A3
S214006F6004239A46D04447462433D75478339A4667
S214006F7063469B88984653464746C752049B9B7871
S214006F80984604239B46D8444B464746D754A033DE
S214006F9099466346DB8898464B464746C752049B4D
S214006FA0DB7898460423D84447467433D754634660
S214006FB01B899B46A0235F465B00C752049B1B7938
S214006FC0984604239B46D84453464746D7546346C0
S214006FD05B899A46C82357465B00C752049B5B7979
S214006FE0984604239A46D0444746C433D75463464B
S214006FF09B899A46F02357465B00C752049B9B79B1
S214007000984604239A46D04447464B46D754634690
S214007010DB8998468C2347469B00C7528C20049BEE
S2140070204000DB7904331354059B012B00D1A6E006
S214007030022900D1D9E0032900D1D1E0012900D1ED
S214007040C9E0029B9C46089B5A1C2379002B00D162
S21400705095E00432900082186046920107301218BC
S21400706050008446654F64486044BC46099F6244AD
S214007070002F00D1ADE00F331F01B846604FDB0094
S214007080BC46604FC444B84667463F8843440780C2
S21400709004931F78B8460427B946C8444746177075
S2140070A05027B94667467F88B8464F464346C3537F
S2140070B0049B5B78984604239A46D044474624337C
S2140070C0D75478339A4663469B8898465346474635
S2140070D0C752049B9B78984604239B46D8444B464D
S2140070E04746D754A03399466346DB8898464B46B6
S2140070F04746C752049BDB7898460423D844474645
S2140071007433D75463461B899B46A0235F465B00B7
S214007110C752049B1B79984604239B46D844534683
S2140071204746D75463465B899A46C82357465B0052
S214007130C752049B5B79984604239A46D044474638
S214007140C433D75463469B899A46F02357465B0060
S214007150C752049B9B79984604239A46D0444746D8
S2140071604B46D7546346DB8998468C2347469B009C
S214007170C7528C20049B4000DB7904331354029BD7
S214007180039A01330293019B013201330193069B5C
S214007190039201349A4200DA9FE60FB03CBC904658
S2140071A09946A246AB46F0BD013D2A000798013E2F
S2140071B0A0E6013B1F01BC46114FB846B5E60B984A
S2140071C0019A013D013E95E6013E30000A9A013DD6
S2140071D090E6013B50E7079B2A0001339C4634E7C4
S2140071E00D9B019A023B9C462FE70C9BB4469A1EC9
S2140071F02BE7C046BCD90100400B0020E059002018
S214007200E0E10100C0DD0100F0B54E464546DE4631
S21400721057468400E0B52018504E4000341825002C
S21400722024352D78253487B02478002D00D179E0D8
S2140072301C363018561901965E1902960026B0467E
S214007240474E9C4603961E19B246023E04961619F1
S214007250B346023E059616004246A8463500002C68
S21400726056D0022960D0032967D0012961D067462D
S2140072705619092E3AD8132F38D80378002B10D079
S214007280BB00DB19364FB94677104B44DB5D012750
S214007290374233D10F2633405E1EB341DBB2002B9C
S2140072A024D1012C34D0022954D003294ED00129F0
S2140072B048D0634656190133092E17D8132B15D814
S2140072C00779002F10D09F00FF18039B9946731074
S2140072D04F44FB5C0127374215D10F2633405E1E14
S2140072E0B341DBB2002B01D1022C11D0002007B035
S2140072F03CBC90469946A246AB46F0BD1B095E1EB6
S214007300B341DBB2CBE71B095E1EB341DBB2E9E754
S214007310019B0132013B0193029B0130013B02932A
S21400732042459CDB0120E2E7019B5E1E53465F1E42
S2140073309FE7029B2E005F1E9BE75B465E1E634632
S214007340D71896E7029B6E1C013BB5E76346059E81
S214007350D318B1E7019B5E1E049BADE7BCD90100C4
S21400736008070020F0B557464E46DE464546490813
S214007370E0B582460E1C052900D905260122002507
S21400738093460F245D4BF6B2002900D19BE05A4687
S2140073905046AA40104200D195E09A7890461209CD
S2140073A091460F2A00D199E048460022002805D0D1
S2140073B001329446E1444A46120152B247462740FB
S2140073C03A434F46A2433A439A70012E7BD0270099
S2140073D00020DA7884461740B9460F2F00D181E0A6
S2140073E0002F05D001208446E144484640B284463A
S2140073F06746A24317437AB24F469446D2B29046A7
S214007400DA705A783F0122403A4352B25A70022E3E
S21400741059D0474600203F09B84681460F2F63D013
S214007420002F06D001208146C8444046000140B2E5
S214007430814667462740BC464F466046074340465F
S214007440A2430243DF705A70032E3CD027001A79FD
S2140074501740B9460F2F49D000208446002F05D08C
S21400746001208446E144484640B284466746484682
S214007470A24317437AB29446D2B290461A711A784B
S21400748000012240024352B21A70052E1BD140461C
S214007490000980460F282DD000208146404600284F
S2140074A006D001208146C8444046000140B28146CD
S2140074B067462740BC464F46604607434046A243C1
S2140074C002431F711A7001350533142D00D05BE797
S2140074D03CBC90469946A246AB46F0BD0020002232
S2140074E081466BE7814683E78046A2E70020844614
S2140074F08146BBE7002081468046D9E70807002082
S214007500F0B5C64600B5264B82B09847254B264FA9
S21400751098461B696421C41A2000B847234D06000C
S214007520AB6A834225D04346A8629B78012B24D0C1
S2140075301F492000B847FA21804620008900B84736
S2140075401C4F3C21B84730000C000A21B847019177
S21400755000944346184A2821184C2800A0470023C8
S2140075600193013300931522073329000020144CA1
S214007570A04702B004BC9046F0BD124B9C4204D912
S2140075800023002100249846E1E796210E4B89004F
S2140075901E1A3000B8470A2180463000CFE7C046A2
S2140075A03DB30000D406002085B900005C0600202C
S2140075B060EA000091BA0000E4DB010069B0000058
S2140075C065B7000043940400B80B0000F0B5DE4633
S2140075D057464E464546B823E0B5D34F5B00FA5CA7
S2140075E03B007133FF335B7897B01B0213431D00DB
S2140075F0CE4B9A46B8235246D35C51460433DBB290
S2140076000893B9235B00FA5C3B007333FF335B7867
S21400761050461B0213430193B923CB5C54460433F4
S214007620D9B2BA235B00FA5C3B007533FF335B7854
S21400763009911B0213430293BA23C35C56460433D4
S214007640D8B2BB235B00F918FA5C4B780A901B0291
S2140076501900BB23E35C11430433DCB2BC235B009C
S214007660F818FA5C43780B941B021800BC23F35CF2
S21400767010430433DEB2BD235B00FC18FA5C63786B
S21400768003911B0219005446BD23E35C11430433E7
S214007690DCB2BE235B0004900C9605910D94FC189A
S2140076A0FA5C637856461B0213430693BE23F35CCC
S2140076B010950433DEB2BF235B00FC18FA5C6378D7
S2140076C00E961B021C005646BF23F35C144304337D
S2140076D0DEB20F962E000794954B964C0522E55287
S2140076E02B041E43944B954DE650954BB346E650FF
S2140076F00899944E2800B047019A934B1000E25226
S21400770013041843914B1190E0500433E0502B00C3
S2140077102833180005220999B047029A8C4B0A991B
S214007720E25213041A438B4B9146E2508A4BE250C6
S2140077302B00503318000522B047039A874B0B994D
S214007740E25213041A43864B9046E250854BE250B1
S2140077502B00783318000522B0470498824B052288
S214007760E05203041843814B1290E050804B0C9972
S214007770E0502B00A0331800B04705997D4B05223A
S214007780E1520B0419437C4B1391E1500433E15052
S2140077902B00C83318000D99B0470698774B052282
S2140077A0E05203041843764B1490E050754B0E9944
S2140077B0E0502B00F0331800B0470799724B0A00D0
S2140077C0E1520B041A43714B1592E250704B0F991D
S2140077D0E2502B001933FF3318000522B0471098EB
S2140077E06C4B0522E05258466B4B0899E0506B4BA9
S2140077F0E0502B004133FF331800B0470198684B28
S214007800119AE052674B0999E2500433E2502B007C
S2140078106933FF3318000522B0470298624B0522F1
S214007820E0524846614B0A99E050614BE0502B000D
S2140078309133FF331800B04703995E4B0522E1529F
S21400784041465D4BE1505D4BE1502B00B933FF33B1
S21400785018000B99B047049A594B0C99E252129AA9
S214007860584BE250584BE2502B00E133FF331800E0
S2140078700522B0470598554B139AE052544B0D9984
S214007880E2500433E25082239B00E8180522B047FA
S2140078900698504B149AE0524F4B0E99E2504F4BBD
S2140078A0E2508C239B00E8180522B04707984C4B03
S2140078B0159AE0524B4B0F99E2504B4BE2509623F1
S2140078C09B00E8180522B04725230021474AD35CD1
S2140078D001915AB2002A03DA7F2213407E3A0192BF
S2140078E09800C31842495B00CA1810002430057877
S2140078F0002D00D184E125321678002E00D17FE1DC
S2140079001C31C818A02300249B463A493A4A0295DF
S21400791003960378002B00D1DCE0019D002D00D1FA
S21400792075E10F336AE0C046E0E10100C0DD01000A
S2140079302A230000400B00202C230000756B00203B
S214007940302300005DBD00007A2300007C23000089
S214007950CA230000CC230000D02300001A24000015
S2140079601C240000202400006A2400006C24000070
S21400797070240000BA240000BC2400000A25000081
S2140079800C250000102500005A2500005C2500008C
S21400799060250000AA250000AC250000B0250000E8
S2140079A0FA250000FC2500004A2600004C260000B0
S2140079B0502600009A2600009C260000A026000004
S2140079C0EA260000EC260000F02600003A27000019
S2140079D03C2700008A2700008C2700009027000024
S2140079E0DA270000DC270000E0270000D40600208D
S2140079F0BCD901006C2E0020766B00201D01AC4621
S214007A00BC4465462D88DB000D8053441D78A8468F
S214007A100425A946C8444546157065466D88A8469F
S214007A20502546464E535E78B0460426C844454622
S214007A30243695556546AD88A8465D4646464E535F
S214007A409D78A8460425C84446464C355655654696
S214007A50ED88A846F02546464E53DE78B046042606
S214007A60C84445467436955565462D89A846A025D2
S214007A7046466D004E531D79A846C84446465D46A8
S214007A80565565466D89A846C82546466D004E5330
S214007A905D79A8460425C8444646C435565565460D
S214007AA0AD89A946F0254E466D004E539D79A846F1
S214007AB00425A946C8444646EC3556556546ED8924
S214007AC0A8468C254646AD004E53DB79193D043357
S214007AD0FF3D5355039B012B00D189E00379002B12
S214007AE000D185E0019D002D00D192E00F331D01ED
S214007AF0AC46BC4465462D88DB00A946A0254E460C
S214007B00AD004E5353441D78A8460425A946C844E4
S214007B1046463D35FF35565565466D88A946B4251B
S214007B204E46AD004E535D78A8460425A946C84487
S214007B3046466535FF3556556546AD88A946C8257F
S214007B404E46AD004E539D78A8460425A946C84427
S214007B5046468D35FF3556556546ED88A946DC25E3
S214007B604E46AD004E53DD78A8460425A946C844C7
S214007B704646B535FF35565565462D89A946F02546
S214007B804E46AD004E531D79A8460425A946C84466
S214007B904646DD35FF35565565466D89A94682252C
S214007BA04E46ED004E535D79A8460425A94682252B
S214007BB0C8444646AD0056556546AD89A9468C254F
S214007BC04E46ED004E539D79A8460425A9468C25C1
S214007BD0C8444646AD0056556546ED89A8469625E6
S214007BE04646ED004E539625DB79AD0004335355DB
S214007BF0029B01340130023101329C4200DA88E6F1
S214007C0017B03CBC90469946A246AB46F0BD013B39
S214007C10F4E6013B6BE7C046F0B54E465746DE46F7
S214007C204546E0B599468BB08300181816000192B9
S214007C30444A400013181C0024342778002F72D0C2
S214007C4025331D78002D6ED04B46013B9C46AC4438
S214007C500393634604933300013B9C46AC44059370
S214007C606346101801221B30029006930198029B6F
S214007C70C6199846B61A0023B346904400970229C0
S214007C804DD0032946D0012935D00598841848469A
S214007C90C018092C26D8132824DC47469E00BE5D53
S214007CA00796002E1ED08600B44682460996264EBB
S214007CB0E244B446E24456466710F6570897B24682
S214007CC00126264236D10F245646A6433400079E88
S214007CD02643F6B2099CA4461B4C6044A446089C66
S214007CE0604406550133AB42C9DB009F531C9742E4
S214007CF019DD1A00BAE70198009E1C18B4464846DB
S214007D006044801A092CEDD80028C4DA0133AB424F
S214007D10B5DBEAE70698C41A03988018B9E7049812
S214007D205C46C01AEEE70BB03CBC90469946A246AD
S214007D30AB46F0BD079C574626010F243C40264321
S214007D40F6B2C7E7BCD9010008070020F023E04AD6
S214007D50F0B5D35CF032517857464E464546DE467F
S214007D60090219437823E0B5DA4A97B0D35CD84ABB
S214007D700433DBB20F93F223D35CF2325278050061
S214007D8012021A437923D348D24CC35CD04804333A
S214007D90DBB20B93F423C05CCD4BF4335B781B0251
S214007DA003437A20205CCA4C0430C0B20A90F62006
S214007DB0245CC7481293F63040780002204384467D
S214007DC07B20C44C205CC24C0430C0B21190F8201A
S214007DD0245CBF48F8304078BD4E00022043079030
S214007DE07C20BC4CFA36205CB94F0430C4B2FA2072
S214007DF01094B74CFC37245C7078000206007D2097
S214007E002643B44C0696205CB14E0430C4B2FC2027
S214007E100E94AF4CFE36245C7878000207007E2075
S214007E202743AC4C3B00205C13970430C4B2FE20C2
S214007E300D94A74C245C7078A64E000204437F2065
S214007E40305C0430C6B20C96002D00D16CE1A02741
S214007E507F42BA46503FB9469F4FA04DB84603955D
S214007E609F4D5026A844404613909E482F008046BB
S214007E70A844404604909C48913F02906046000407
S214007E8005900798B346000409900698FF3F000443
S214007E900890180407902004129B069008040843D4
S214007EA0110411431A041A433B0014901398AB4470
S214007EB02E005F4680469B46503EAA44A944159134
S214007EC012928A4B149AEC18049B04C4A342FCD169
S214007ED0039828221938029B0F99FF3898475B466B
S214007EE0159A04C4A342FCD1039828229B460B99FA
S214007EF0029BF03898474346129A04C4A342FCD12A
S214007F000398282298460A99029BC8389847059AEB
S214007F10130C13434A4608C4A242FCD10398029BA2
S214007F20914611992822A0389847099A130C1343B2
S214007F30524608C4A242FCD10398029B924610996E
S214007F40282278389847089A130C134308C4B4427A
S214007F50FCD1340003982822029B0E99503898478B
S214007F60079A130C134308C4A542FCD10398282291
S214007F70029B0D9928389847069A130C134308C499
S214007F80A742FCD128220C990398029CA047039B89
S214007F904133FF330393A0239B009C46049B654418
S214007FA063440493524B67446644E244E144E0442D
S214007FB0E344AB4285D14F4B4F4E06934F4D069B45
S214007FC072794F4C520164339B1828214D4A4E4F0C
S214007FD02000B8474D4B20009846B94698472827BA
S214007FE0337E3A1A594259410191591E8B41520823
S214007FF0D2B2009321000B230020A847B379444A4D
S2140080005B019B182821434A2000C8472000C04730
S214008010337E3A1A013B594259410191591E8B4110
S2140080205208D2B2009321000D230020A847B37A4D
S214008030394A5B019B182821384A2000C84720008F
S214008040C047337E3A1A023B594259410191591EA4
S2140080508B415208D2B2009321000F230020A8477C
S2140080602F4A28212000C8472000C047337E3A1AEE
S214008070033B594259410191591E8B415208D2B2D5
S2140080800093210011230020A847264A282120001B
S214008090C8472000C047337E3A1A043B594259412C
S2140080A00191591E8B4152080093D2B2152321002C
S2140080B00020A8473378092B00D1CCE10C2B00D147
S2140080C09CE117B03CBC90469946A246AB46F0BD34
S2140080D0E0E10100C0DD0100C0FEFFFF7867002080
S2140080E07026002020FEFFFF5DBD0000D0FDFFFFD4
S2140080F0F04B0020BCD90100D406002065B7000074
S2140081005C060020A4DC010069B0000005BE00008B
S21400811080DA0100B0DC010000DB0100C8DC0100F1
S214008120DCDC0100ECDC01005026B046E54DE64BF9
S214008130A844464604965026029363467642B346C3
S214008140B619B046503EB246E04E1B04B1462E006D
S2140081500593079BE13E1B040993069BFF3E1B0409
S2140081600893139B2F001B040793230406930C0409
S214008170129B0C43110411431A041A433300A844FB
S21400818046469846D248413F0390D248AB4428180A
S214008190AA44FF3FA9441394149112924346139A9B
S2140081A004C09842FCD19846039828221938029BAE
S2140081B00F99FF38984744464B46149A04C4A34286
S2140081C0FCD1039899462822029B0B99F0389847D1
S2140081D0129B08C4BC42FCD103982822029B0A9931
S2140081E0C8389847059A3C00130C1343524608C4F7
S2140081F0A242FCD10398029B924611992822A038ED
S2140082009847099A130C134308C4B442FCD1039848
S21400821028221099029B78389847089B59461A0CD2
S2140082201A43330004C38B42FCD18B4603982822A2
S214008230029B0E9950389847079B1A0C1A435B46C8
S21400824004C3AB42FCD1039828220D99029B283820
S2140082509847069B04991A0C1A432B0004C39942AC
S214008260FCD128220C990398029CA047039B41331B
S214008270FF330393A0239B009C46049B6544634402
S2140082800493954BE3446644E2446744E144E04487
S214008290AB4202D08F4BE81880E7904B059319232A
S2140082A098468F4B06938F4B48330793F023994697
S2140082B04246069B07249B5C02949A468A4B991A70
S2140082C05022059B93461800584484464046079A19
S2140082D01E00171A180043469B101A01DB00039372
S2140082E03B00A036674604929C4657E04346052B63
S2140082F000D822E1039B049A7C4D6446AB467C4D35
S2140083005A44AB4615885B4405801D7804350D70CD
S21400831055883D805D7804352570502495883580D5
S2140083209D7804350D554C46D58805537824DD7860
S21400833004350D55A02514896D004453A0241D79DD
S21400834004350D55C82554896D004453C8245D79FD
S21400835004350D55F02594896D0044534C469D799F
S21400836004350D55D5898C2292008552DB79193A51
S2140083700433FF3A8B54A0239B009B46413BFF3BB4
S21400838058445F449B464133FF33DC449B46029B84
S2140083904131FF315E44013B029308D30123029A28
S2140083A0934052461A42A1D17823F022A4E7012333
S2140083B05B429C46059BE044023305934346002BF4
S2140083C000D075E74B4EB47B012C00D1A4E0002C06
S2140083D06ED0FF2C00D0F1E5012401930094082311
S2140083E00F2245490020454DA84743460094019377
S2140083F00722092342490020A847E0E5414A2821F0
S2140084002000C8472000C04728220023121A0193E4
S2140084105208013321000093D2B214330020A8473B
S214008420337E0020073B5A425A4101925A1E93411E
S214008430354900930E221723A847337E0020083BB9
S2140084405A425A4101925A1E9341304900931722CC
S2140084501723A84735E62E4A28212000C8472000C3
S214008460C04700233A1A0193520801332100D2B2C2
S214008470009300201033A847337E0020053B5A4265
S2140084805A4101925A1E93411F4900930E2213230C
S214008490A847337E0020063B5A425A4101925A1E94
S2140084A093411A49009317221323A847337805E609
S2140084B0019301230C2200931649073300200F4D29
S2140084C0A8477CE5700D00205DBD000070FEFFFF34
S2140084D0F85A0020D0FDFFFFF04B00204E0B002086
S2140084E0BCD90100E0590020005A0020E0E101005C
S2140084F0C0DD0100D40600207CDC010065B700006A
S21400850088DC010030DD010024DD010028DD0100EB
S2140085100CDD010034DC01000193009408230E22D8
S21400852007490020074DA8474346009401930422BC
S214008530092305490020A84741E500231A00DBE689
S21400854048DC010065B7000058DC010070B5002566
S2140085501A4B1B4A1D605A601A4AD8211A611A4AD9
S2140085601A485A611A4A9A601A4ADA601A4A9A618E
S2140085701A4ADA611A4A1A621A4A5A621A4A9A62F7
S2140085801A4ADA621A4A1A631A4A5A631A4A9A63E3
S2140085901A4ADA6310221A4B98470823194C00200F
S2140085A02370194B9847012331222371A35423814A
S2140085B0C0239B042562E561E36070BDC0490020CE
S2140085C0CFC000000000CFC0CFC0CFC080DE01000B
S2140085D0C8C0C8C00880088047404740C740C7405A
S2140085E0C040C0400F800F80070007000400040052
S2140085F00B000B00404040400080008085C085C0D6
S214008600E1B40000D40600204D7D0000F0B55746CA
S214008610DE464E464546E0B5CD4F8DB03C780290DE
S2140086202300083B012B3DD90C2C42D00B2C0ED13D
S214008630029B01339BB2012B00D8D0E1BB79DB074C
S21400864001D400F05AFE0A230A243B701AE3C14BF9
S2140086509847BB7B012B24D1BB78012B01D100F0BE
S21400866068FEBD4B9847BB78012B01D800F040FC54
S214008670022B01D100F0F3FB002600252C23B74C7B
S214008680E35CAB420BD03B799846B54B9847B54B6D
S214008690010040469847B44BC8B2290098472C239F
S2140086A0E6543C780C2C00D9BBE3B04AA300D35860
S2140086B09F46029B612B01D100F015FD642B01D172
S2140086C000F00BFC202B01D100F024FCA84B01206D
S2140086D09847029B6D2B00D07DE13C78082C00D09B
S2140086E0D4E2A44B98477A693B699B1A1B183B61F6
S2140086F07B783B70A04B9847974B9847974C9F4E7C
S214008700FB7B9F4A28212000B04700239846019310
S214008710013399469B4D0093152203332100002018
S214008720A847FB69984A28212000B0474346019392
S2140087304B460D22009321000020A8473B6A934A2F
S21400874028212000B047434601934B461C22009345
S21400875021000020A8473B798D4A28212000B047F9
S214008760434601934B460122009321000020A84770
S214008770BB78022B00D160E33A89BB89282100929E
S2140087802000844AB047002301930133009315224A
S214008790053321000020A847BB78012B00D8F5E25E
S2140087A0022B00D0F5E2502650256D4B3F799847B6
S2140087B06C4B0100380098476B4BC8B229009847AD
S2140087C02C23E654744B984709E12823FD5E2623A4
S2140087D0FB56ACB299462A23FB5C9A463023FB5CD8
S2140087E0002B00D14BE380235B00E418242324B243
S2140087F03C859846FB5C694E9B46231203934A468B
S2140088005BB2514658461C000496B047002801D17A
S21400881000F0A4FC30230022FA54029B2B3B9BB2B0
S2140088204C2B01D900F037FD5D4A9B00D3589F467C
S2140088302823FD5E24236C1CFF3424B23C85994615
S214008840FB5C9A462A239B46FB5C504698462623AA
S214008850FE56414623123200504C0393A047002890
S21400886000D123E3039B3200414650464D4CA047BF
S214008870ADE04D4D00202B0000240F2101261A7874
S214008880114218D0120916D05A78114213D0120984
S21400889011D09A7811420ED012090CD0DA78114213
S2140088A009D0120907D01A79114204D0120902D051
S2140088B0320082401443013005331428DFD10022F1
S2140088C000210120FC620300934023405E1EB3415A
S2140088D00132C918202AF6D1FB69022901D100F01D
S2140088E0D0FC00DCF6E1032900D16DE3042902D1B7
S2140088F0F533FF33FB613A6A9A4200D23B62BB898A
S21400890059183B8989B2B9818B4200D99DE2BB7860
S214008910022B00D199E202239846244CBB73FC62DA
S21400892005233B70043B9A46214B0026994603E0FC
S2140089300136142E00D17BE35346B3401C42F7D0D9
S214008940B0008019401905228821C847F0E7C046C4
S214008950D406002099670000017500005C06002020
S214008960D561000091BA0000ED63000054D8010004
S2140089704D7D00003DB300004D6A000069B0000068
S21400898094DB010065B70000A0DB0100B0DB01004E
S214008990BCDB0100C8DB0100CD75000009720000D9
S2140089A088D801005D6E000008070020FFFF0F005A
S2140089B05DBD00002B24395DD74B0131C9B2F86A82
S2140089C0395598473B5D142B01D100F028FC029BDB
S2140089D06D2B00D181E6029B4D2B00D17DE60DB0BC
S2140089E03CBC90469946A246AB46F0BD0023FB61D0
S2140089F03B7101330122BA730022F978BA81032948
S214008A0000D1F1E2E20803315218D2B2062A00D9A8
S214008A1019E2FA733B81C14B9847C14B38619847BE
S214008A20C04B64220021C04898473B79042B00D9EC
S214008A30B5E1BE4B9846BE4B9B4601233B70B74BF9
S214008A4098478023BB499B0504CB80188B42FBD1FB
S214008A50B94B9847C0470721D8472523B74CF95448
S214008A60B74EFB7BB74A28212000B0470023984624
S214008A70019301339946B44D009315220333210028
S214008A800020A847FB69B14A28212000B04743468A
S214008A9001934B460D22009321000020A8473B6A15
S214008AA0AB4A28212000B047434601934B461C2280
S214008AB0009321000020A8473B79A64A28212000E1
S214008AC0B047434601934B46012200932100002005
S214008AD0A847BB78022B00D198E23A89BB892821A7
S214008AE0009220009C4AB047002301930133009374
S214008AF01522053321000020A847BB78012B00D89B
S214008B0074E2022B00D047E1502650253B79984668
S214008B10924B9847924B010040469847914BC8B2FB
S214008B20290098472C23E65451E72423984600242E
S214008B302A2625254246BC55FC627B5DBB547B4BF2
S214008B4098477B4B07219847052300227955013526
S214008B507B55033B3B702E33FA54834B3C8598473A
S214008B604346FB5CBE5D99467B57804C9B46310076
S214008B7000235A4648460494A047002800D183E1C3
S214008B802823FC5E3123FB5C2412002B1BD04B46B3
S214008B905BB298462500132C00DDD7E3039403E070
S214008BA00135142D00D1D1E3EBB29A465A466BB28A
S214008BB031004846049CA0470028F1D1039CA542FA
S214008BC001DD00F0BCFD6A4B984663B25A463100A0
S214008BD04846C047FBE6BB7B012B00D158E14F4B14
S214008BE098473B69C01A634B984279D9BB78012BEA
S214008BF076D100220093019209330A325E490020A2
S214008C00514DA84776E0029B612B00D173E2642B9E
S214008C1000D1A5E1202B00D058E53B7E052B00D1E6
S214008C20BAE300233B763B70BB7AFB707B79BB7064
S214008C304CE53C796300E3180133DBE6029B612BCD
S214008C4000D163E32EDD732B00D197E3772B00D1A1
S214008C50BDE1642B00D198E1BB79DB0700D535E593
S214008C60802301225B02FF210520444CA0472DE50E
S214008C703223FB5C002B00D154E104233B7000231D
S214008C800424FB62029B6D2B00D0A4E600203C4B24
S214008C907C70984700233B7608333B701F4B984701
S214008CA078619CE65A1CD7DB002B00DC0EE5202BF7
S214008CB0D2D13B7E032B01D100F005FE042B00D061
S214008CC004E508333B70053B3B76BB79DB0700D5F4
S214008CD0FCE472E1012900D00DE60A33FB610AE6E6
S214008CE000230193013300930F2209332549002006
S214008CF0154DA8470123002400930194093302224E
S214008D0021490020A847029B01339BB2012B00D8C3
S214008D1065E63C700024B5E7657300003DB30000CF
S214008D204D6A00005DBD00000807002095B00000F9
S214008D3065BC000000800020FDB000005C0600203E
S214008D4069B0000094DB010065B70000A0DB0100FD
S214008D50B0DB0100BCDB0100C8DB0100D561000010
S214008D6091BA0000ED630000CD75000009720000A6
S214008D705D6E0000E093040078DD010059A5000058
S214008D804D7D000090DD01009CDD01003989002941
S214008D9069D10026002508E500260025B6E6122241
S214008DA0043BDB10D31A049313230393D64B984645
S214008DB0D64B9B46012399460E339A46039B0824BE
S214008DC09C469E00D24B66449C466644C0470A2199
S214008DD0D8470D00C0470721D8474A4601316B10D7
S214008DE02A420FD05046F25C090102401143013C72
S214008DF0F154002CEAD1039B049A013B039393425F
S214008E00DCD11AE65046F25C013C82431143F15431
S214008E10002CDBD1039B049A013B03939342CDD1F4
S214008E200BE6BB79DB0700D5D1E5802301225B0288
S214008E30FF210520B74CA047C9E5BB89B64A2821C3
S214008E402000B0479FE40622E3E5002C01D000F0A6
S214008E506AFC01233B702B230022FA54B7E5502608
S214008E605025FFF70BFCBB899800C0180001AB4BE0
S214008E7098470500502800DD5025EEB295E4FA7BB1
S214008E80013393409BB2B0E4072307243B70F9E616
S214008E90FF22BA73BA79134200D0A0E680230122DB
S214008EA05B02FF2108209B4CA04798E62B12DBB202
S214008EB0F2B2414650469A4C3D85A04704233B708B
S214008EC04B46FB5C9A465B46FB5C98462623FE5662
S214008ED02823FC5E23120393C4E40123BA791340CB
S214008EE03A7E072A42D0002B01D0FFF7EFFBB7E609
S214008EF03989002901D1FFF7BFFBBB899800C0184C
S214008F000001864B98470500502800DD5025EEB23C
S214008F10FFF7B4FB3B7E072B00D137E2814B824A3A
S214008F20DA60FEE7FB6A1326984601239B46784BD9
S214008F30132599467D4B9A464346A0461C0001E001
S214008F40013D69D35B46AB401C42F9D1B000A90095
S214008F5080194919484449440522D047013EEFE7A5
S214008F600123BA7913403A7E052ABCD101323A76FB
S214008F70002B01D0FFF7AAFB802301225B02FF2112
S214008F800420644CA047FFF7A1FB3A7E012A00D1DB
S214008F904CE3002A00D12CE2022A01D0FFF796FB10
S214008FA00123B979BA7A0B40022A00D927E20132A6
S214008FB0BA72002B01D0FFF789FB0122FF210420A3
S214008FC05B4B9847FFF782FBC833FB6193E40123B2
S214008FD0B9793A7E0B40002A85D0013A3A76002BC2
S214008FE001D0FFF773FBC7E7F97313E5398900294A
S214008FF000D1D1E6BB899800C0180001474B9847BE
S2140090000500502800DD5025EEB27FE5BB89424AB8
S21400901028212000B04767E54446002E00DA31E6F6
S2140090200136B20092190021424B3948984729E68A
S2140090300123BA7913404246022A00D152E1002B9E
S21400904000D174E3BB78012B00D83BE1022B47D15B
S214009050502650252C23384CE35CAB420BD03B7992
S2140090609846364B9847364B010040469847354B56
S214009070C8B2290098472C23334AE6542821FB69B6
S214009080324E2000B04700239846019301330093E8
S2140090900D22210000202E4D9946A8473B6A2D4AF6
S2140090A028212000B047434601934B461C220093DC
S2140090B021000020A847BB78022B00D1E5E03A89C2
S2140090C0BB89282100922000234AB0470023019341
S2140090D0013300931522053321000020A847BAE685
S2140090E000260025B6E70123BA7913403A7E082AFF
S2140090F000D0F8E671E70123BA7913403A7E062AD3
S21400910000D0F0E669E7C04695B0000065BC0000F8
S2140091100807002059A50000D8DB010099BA000016
S214009120197C000000ED00E00400FA05B5BC000064
S214009130D56300005DBD00005C060020D561000020
S21400914091BA0000ED630000A0DB010069B00000EA
S21400915065B70000B0DB0100C8DB01004A462B12F1
S214009160DBB25846AC4CD2B251463D85A0470423EC
S2140091703B704346FB5C9B462A23FE5C043BFD5645
S2140091802823FC5E231203933123FB5C9846434658
S214009190002B1CD05B465BB29A46039B132B00DD6C
S2140091A052E2984603951C0002E00134142C19D0B4
S2140091B0E3B29946039A63B231005846049DA84725
S2140091C00028F2D14346039D0393A34225DB934B2D
S2140091D098466B461B7B2A005BB231005846C04758
S2140091E0FFF7F5FBA046039D4346802052464042CB
S2140091F01043013B894C5BB22A003100C0B2A04745
S2140092002423FB5CA0469B462A23FE5C043BFD56BB
S2140092102823FC5E23120393DBE74B46E5E7FB6A55
S2140092201325984601239A467D4B183C7D4E994659
S21400923001E0013C0ED353464246A3401A42F8D101
S214009240A800A10040190919801989190522C847E4
S214009250013DEEE7002D06DB0135AA00521900217C
S2140092607048714B9847BB7B022B00D1ECE0322351
S214009270FB5C002B00D0B8E00122FB623A700124B0
S21400928000E53233FB61FFF736FBBB89674A2821CE
S2140092902000B0471AE73123FB5C4D4698465646F9
S2140092A023002A0031005846049CA047002800D01E
S2140092B06DE726234A46FA5452460433FA544D467E
S2140092C0564664E73989002900D109E7BB8998002A
S2140092D0C0180001564B98470500502800DD502561
S2140092E0EEB2B7E6002B00D0ACE68023013A5B0274
S2140092F0FF2107204F4CA047A4E6802301225B02F3
S214009300FF2104204B4CA047FFF79DF93A7EBB791E
S214009310012A5FD0002A51D0022A43D0DB0701D5AC
S214009320FFF7D4F90122FF210520434B9847FFF7AA
S214009330CDF9424B98473B69C01A414B984201D839
S214009340FFF78FF907233B70FFF78BF96B1E802022
S214009350424640421043314C5BB25A463100C0B2DE
S214009360A0472423FB5CA04699462A23FE5C043BC8
S214009370FB569B462823FC5E241226E40123B9797B
S2140093803A7E0B40032A00D9ADE5EFE5033B3B767A
S21400939004333B70FFF79AF9023B3B7605333B708C
S2140093A0FFF794F90122B97A1340002927D0013932
S2140093B0B972002B01D0FFF789F9FEE50122797911
S2140093C0134000291BD001397971002B01D0FFF71B
S2140093D07DF9F2E5002BA5D0013BDBB2BB719B0704
S2140093E000D42CE1174B98476FE4062306243B7005
S2140093F048E40123B9797A790B40012A04D9002B75
S21400940001D0FFF763F98DE701327A71002B01D0A6
S214009410FFF75CF9D1E5C046197C00005D6E0000E0
S214009420B5BC0000080700205DBD0000D8DB0100C9
S21400943099BA000059A50000D56300003DB30000AE
S214009440E0930400ED9D0000E14BF2241D0019009E
S214009450F022F2356D781C5D2D0225437924F0311B
S21400946048789A5C00021043DA4A0395145D1D00A2
S2140094700434E4B20494F424F4356E781C5D3602A9
S21400948026437A24145D78210434E4B20594F62445
S2140094901D5D1C00F6346478515C24022C43A24601
S2140094A07B24145D04310434E4B20694F8241D5D74
S2140094B01C00F8346478C9B224022C4307947C2438
S2140094C0145D0434E4B20894FA241D5D1C00FA34DA
S2140094D0647824022C43A3467D24145D0434E4B24D
S2140094E00994FC241D5D1C00FC34647824022C4383
S2140094F0A1467E24145D0434E4B20A94FE241C5D66
S214009500FE335B781B02234398467F23D35CB24A24
S2140095100433DBB20B9303041843B04B9C181A00B9
S214009520503201C39342FCD12822AD48AD4DA84726
S214009530F522039B520119041943AB4BA21802C330
S2140095409A42FCD128220499A848A8473304A84A7E
S2140095501E43A84BA21840C39A42FCD12822059964
S214009560A548A8475346FA211A041A434901A34BB3
S214009570611804C39942FCD128220699A048A8473E
S214009580079BA0491A041A439F4B611804C39942CB
S214009590FCD1282208999D48A8475B46FF211A045B
S2140095A01A4349019A4B611804C39942FCD12822F8
S2140095B009999848A8474B4697491A041A43974B67
S2140095C0611804C39942FCD128220A999448A847F6
S2140095D08221434689018C461A041A43914B6444FF
S2140095E004C39C42FCD128220B998F48A8478F4C75
S2140095F08F4A28213B7920008E4DA8473B792000D2
S21400960001333B718C4B984728220023121A019392
S21400961052080133009321000B33884CD2B200204D
S214009620A0470B230B243B70FFF72CFBBB79022BC8
S2140096301AD80133DBB2BB719B0700D5D2E680484F
S214009640804B9847FFF741FB9846CDE5BB79DB0793
S2140096500FD54D465646032301361E402733FE548B
S2140096600733FB5C98461BE61A4201D0FFF72EF83C
S21400967058E68023744C5B020122FF210320A0479A
S2140096802A23FE5C063BFB5C9B462623FD562823CE
S214009690FC5E231203935BB21C00DCE7BB79DB079E
S2140096A02CD556464D4630230122FA540133FB5C36
S2140096B09846F5E53B795D4C0133DBB2634A2821D9
S2140096C020005C4D3B71A847002301220193013323
S2140096D0009321000020594CA0472423FB5C9B46A6
S2140096E02A23FE5C043BFD562823FC5E23120393CC
S2140096F05BB21C003123FB5C9846D1E58023524CBC
S2140097005B020122FF210420A0472623FD56023BD0
S214009710FB5C9B462A23FE5C2823FC5E23120393F5
S2140097205BB21C00BFE7BB7B9846FFF7F9F88023C7
S21400973001225B02FF210620434CA04782E45346E9
S214009740013B04E631220123B95C4D465B1ADBB2CD
S2140097509846BB545646A3E5BB79DB0722D54D4653
S214009760564603233B702E33FB5C984698E5BB7940
S2140097705646DB076CD52623FD5C01356DB2FD54DD
S2140097800B33FB5C98468BE54B465D1E26236DB27D
S214009790FD549846BB79DB076DD53123FB5C5646F6
S2140097A098467DE58023284C5B020122FF21092094
S2140097B0A0472423FB5C9B462A23FE5C043BFD5605
S2140097C02823FC5E231203935BB21C00C9E7C04645
S2140097D0E0E10100C0DD010000E2FFFF40290020BB
S2140097E0E06800205DBD0000902900200869002088
S2140097F0F01E0000E029002030690020302A0020FA
S21400980058690020901F0000802A002080690020F0
S214009810D02A0020A869002030200000202B00203D
S214009820D0690020702B0020F86900205C0600201C
S21400983058DD010069B0000005BE000065B70000F5
S214009840B0290100699D000059A50000BCDB01009D
S2140098508023224C5B020122FF210420A047242300
S214009860FB5C9B462A23FE5C2823FC5E23120393A4
S2140098705BB21C007FE7802301225B02FF210420ED
S214009880164CA0472423FB5C9B462A23FE5C4346DB
S21400989029E7FB7B002B00D1FDE4013B104CDBB23B
S2140098A0104A28212000104DFB73A847002301937F
S2140098B001330093152203330BE7FB7B052B00D9FE
S2140098C0E9E40133EAE706333B70043B3B76BB79B9
S2140098D0DB0701D5FEF7FAFEFFF74EFB59A50000A1
S2140098E05C06002094DB010069B0000081747047BC
S2140098F07047C0465F230278134003707047C04627
S21400990040220378134303707047C0464174704783
S2140099104173704781737047F8B5CE4647460400DA
S21400992080B543881C4ACD1869005B00885E9B5E44
S214009930E17AC01A194B984701B2002901D10130CB
S21400994001B223799C46164B994663465E00F3188F
S214009950DB004B441A698818186123785AB2002A2B
S21400996017DBE27C120190460E4A12684244976862
S214009970D2680137BA4203D86644F6004E44F06017
S21400998008221343A572218123700CBC9046994689
S214009990F8BD227DE6E7C0468CF3010099BA0000C8
S2140099A00C080020F4070020C172704781717047D0
S2140099B010B58479002C0ED0C36900290CD1053B64
S2140099C002E0033BFF2A0CD09A1CC2611A780D2ACB
S2140099D0F7D1013C847110BD01314A0051185B1A61
S2140099E0C361013C8471F6E770B505798378104A47
S2140099F05B0069009E5A0F4C4A19D200A218936861
S214009A001B0A73431B0A136102787F2A0ED8C07C98
S214009A10094A0001126812189068D2680130824222
S214009A2003D84919C9006118CB6070BD007DEFE707
S214009A308CF301000C080020F4070020037870B5B2
S214009A407F2B1ED8C47C104B24011B6805791C197B
S214009A500223E25E0D4953009B180D4A9B00D31863
S214009A6018890C4B000298476B000B4A5B19DB0009
S214009A70D318A268E16801321861914200D8D86014
S214009A8070BD047DDFE7C046F40700203075000097
S214009A90B8D7010099BA00000C0800207047C046ED
S214009AA070B50E00104D0479A847F1B2884217DD54
S214009AB0221C032C00D90322D2B253009A180B4B57
S214009AC0D2009B18002248009A614118084A890073
S214009AD0501852584068120258609A60DA6070BD9A
S214009AE0A8470138C1B2E3E7D16300000C080020A4
S214009AF0B8D7010010B543880279591889B2418059
S214009B00131CC9B2032A00D90323DBB25A00144837
S214009B10D218D200821880291FD0124C4900095B47
S214009B20116111495B01CA5C7F2A13D8CA18D47C1C
S214009B300E4A2401126812199468D2680134A242AF
S214009B4007D8CB181A7953009B18DB00C018036996
S214009B50C36010BDCA18147DEAE780311161E0E7E2
S214009B600C0800208CF3010070070020F40700208A
S214009B7010B543880279591A89B24180131CC9B2BC
S214009B80032A00D90323DBB25A001448D218D200A5
S214009B90821880291FD0124C4900095B11611149B7
S214009BA05B01CA5C7F2A13D8CA18D47C0E4A2401EB
S214009BB0126812199468D2680134A24207D8CB18EA
S214009BC01A7953009B18DB00C0180369C36010BDE8
S214009BD0CA18147DEAE780311161E0E70C0800201E
S214009BE08CF3010070070020F4070020027970B59E
S214009BF0131CCCB2032A00D90323DBB25A00174D3C
S214009C00D218D200AA18802C24D0154E6400A45B6B
S214009C101461144C5B01E25C7F2A18D8E218D67CEB
S214009C20114A3601126892199668D2680136B24215
S214009C3007D8E418227953009B18DB00ED182B692F
S214009C40EB600822037841809343037070BDE218EE
S214009C50167DE5E780341461DBE7C0460C0800207B
S214009C608CF3010070070020F407002010B50E4C9E
S214009C705C22200000210D4B98470D4B083C63608A
S214009C80E3616363E3640B4B0121636604235B4279
S214009C9023600220084B98470122084B1A701032A6
S214009CA05A700B3A1A7010BD140800205DBD0000F3
S214009CB060E301000848004249B300000048004243
S214009CC0F8B557464E464546DE46FF221F4BE0B5E2
S214009CD018601F4B00251A7000221E4B00271A70B2
S214009CE01D4B1E4C9A461E4B1E4E994610239846F8
S214009CF0EF339B46434623705B462571E373277418
S214009D00E774D047002300281CDD5800C0184B46D7
S214009D1080001B185B68013573604B461B58EDB21C
S214009D201B02B360F3601823A3734346B761E37264
S214009D3018362034042DDDD13CBC90469946A24608
S214009D40AB46F8BDD0470138C3B2DEE7F4070020C3
S214009D50F9070020B4060020D16300007007002039
S214009D60B8D701000C0800207F22174B30B51978B1
S214009D70202511401970FF2159715C5D0130144097
S214009D805C552524203519555C5D14405C554524EA
S214009D9019551B341D5D2A401A55652299540B4BE4
S214009DA0002218600A4B0B4918600B4B0A8018609B
S214009DB000230A490A800A4A13700A4A13700122CD
S214009DC0094B1A7030BDC0467007002000080020FE
S214009DD06C070020FA07002004080020F007002087
S214009DE0FC070020F8070020B4060020FA223221E3
S214009DF0054B5A5420315A5420319A745A54002232
S214009E00024B1A707047C04670070020B406002048
S214009E10F8B557464E464546DE468946E0B500212B
S214009E201D00FF2306784374027481744183040086
S214009E304822300090430022A2714A466371484B84
S214009E4012019B4690462779464A7B002070DB1914
S214009E50DB00924612685B44A181658042449961AA
S214009E600221505E411C52D0410009183E4889002C
S214009E70411849685960D16892680802891A09022F
S214009E809860D96076B24B46002E3EDBE374002D18
S214009E9011DC53461B6843445B68002B04D0002249
S214009EA022831A780133E282E3613CBC90469946ED
S214009EB0A246AB46F8BD2279EDB2131C032A00D9A0
S214009EC00323DBB25A00D218D2005A44802D43D066
S214009ED026496D00695A116125495D014B5D7F2B4E
S214009EE037D84B19DA7C53461B6812019A189068CB
S214009EF0D26801308242CED8491909794A005218F0
S214009F00D2005A441169D160C5E72375BFE7194BE3
S214009F1098470022002817DD391C032F12D8C9B233
S214009F204B005B180021DB005B44500080189961F1
S214009F300D4980000A1852685A600A5812029A6040
S214009F40DA609FE70321EAE70A4B98470138C2B276
S214009F50E2E74B191A7DC6E7802149001161BBE78D
S214009F600C080020F4070020B8D701008CF301008D
S214009F7070070020D1630000F8B5DE4657464E460F
S214009F8045461222E0B5BF4CBF4BA2561B68002ABE
S214009F900AD0617C8918081CFF2900DDE5E102B2C1
S214009FA0D243D217024062743222A256002A0CD044
S214009FB03121615C8918081CFF2900DDD3E102B25B
S214009FC0D2433121D217024062545222A256002AAE
S214009FD00CD05121615C8918081CFF2900DDC8E1FE
S214009FE002B2D2435121D217024062547222A256C4
S214009FF0002A0CD07121615C8918081CFF2900DD3D
S21400A000B5E102B2D2437121D217024062542278DF
S21400A010110700D57FE19D4A90462022A25C1107D9
S21400A02026D52821655E41464046896A984E6918BD
S21400A03081622A20205C4000805B002D00DCBBE1B2
S21400A040884200D8BEE152B2002A00DAC4E13322C8
S21400A050A25C12019A189168D2680131914207D326
S21400A0602422A15C4A005218D20042441169D160F1
S21400A0704022A25C110726D54821655E414640462F
S21400A080096C834E691801644A20205C4000805B9E
S21400A090002D00DCA3E1814200D3A6E152B2002AE3
S21400A0A000DAACE15322A25C12019A189168D268D9
S21400A0B00131914207D34422A15C4A005218D200D3
S21400A0C042441169D1606022A25C110726D568213E
S21400A0D0655E41464046896D6D4E691881656A2009
S21400A0E0205C4000805B002D00DC52E1814200D302
S21400A0F055E152B2002A00DA5BE17322A25C12013B
S21400A1009B189A68DB680132934207D86423E25CA6
S21400A11053009B18DB0043441A69DA605D4B1B78DA
S21400A120002B4DD05C4B5D4A994692461B881288A0
S21400A1309A4200D0FAE15A4D2A6807E051469BB28F
S21400A1400B80484600210180002B36D10020511C90
S21400A15029601056C6B2FF2E00D153E1514B00289D
S21400A16000DA63E10327F0221B781F401340B02B70
S21400A17000D167E1C02B00D193E1902B00D173E1B1
S21400A18000234A1C2A60CB56002BD7DA7F2110000A
S21400A1907F260B40002101322A6041563000DB0149
S21400A1A00840C31810000029F4DB51469BB20B8010
S21400A1B0484600210180002BC8D001234A46138060
S21400A1C0394B26009946394B45469A46384F8036D5
S21400A1D021788B064FD5E269002A01D04B0620D5A0
S21400A1E0638B344A934201D00133638349B2227CA5
S21400A1F0002961DB002A04D0617CE07B002900D0C6
S21400A200ADE00023227BA17B6B61521822732034C1
S21400A2101835B442DCD13CBC90469946A246AB46C3
S21400A220F8BD238BE08A984200D082E1531CE3619C
S21400A2301378FF2B00D17FE10021884605E0991CAA
S21400A240E1615B78FF2B00D15AE1911C9B00E16134
S21400A250FB1851785B68200098474046E3695A1C13
S21400A260E26119782083E1820029E8D00120217874
S21400A27020838B06B4D4002320346B611835B44297
S21400A280A6D1C8E770070020F40700200C080020BD
S21400A2908CF30100B4060020F0070020FA07002027
S21400A2A000080020F8070020F9070020ACEC0100A9
S21400A2B060E30100FFFF0000002AA2D0617C0029B5
S21400A2C09FD0FF204B461B78002B9AD0424301328A
S21400A2D0FF32120A4A4301326179FF32120A4A43B8
S21400A2E00132FF32120A5343617B0133FF331B0AEC
S21400A2F0227B002900D186E75046805C8038C0B2B9
S21400A3004143FF200131FF31090A411A4B43013313
S21400A310FF331B0A77E70821655E8949894E884620
S21400A3204046096969180161A07A4000805B002DEB
S21400A33021DD814223D252B2002A28DBE27C1201C0
S21400A3409A189168D2680131914200D265E6217967
S21400A3504A005218D20042441169D1605DE60028D6
S21400A36000D14EE7AEE7FF2029E6FF2017E6FF20E4
S21400A37047E6FF2034E6002DDDD08842DBD3414699
S21400A380086108218A43227052B2002AD6DA227D5A
S21400A390D5E7002D00D1ACE6814200D9A9E64146BA
S21400A3A0886508218A435831625452B2002A00DB7D
S21400A3B0A3E67422A25CA2E6002D00D143E6884202
S21400A3C000D240E64146886208218A43183162542A
S21400A3D052B2002A00DB3AE63422A25C39E6002DAF
S21400A3E000D15BE6814200D958E641460864082160
S21400A3F08A433831625452B2002A00DB52E65422B5
S21400A400A25C51E6911C296050782F2800D187E085
S21400A410062800D0B4E6111D2960D378532B50D0FF
S21400A420452B00D0ACE6484B1968A9E60327911CDB
S21400A43029601E70374033005678F0221340B02B48
S21400A44000D097E64A1C2A600B78072E33D00B2ED6
S21400A4503AD05C2E5ED01100642E00D090E67F01CC
S21400A460E7195B00BB738BE67B019B461B5D481CB4
S21400A47028609A0602D55AB2002A49DB0A785200AA
S21400A480D2B2002A26D15946611840328E7C1A4034
S21400A490324300D10A74402293435A4601001355B2
S21400A4A06EE62A4B9847864200DB00267F01E719B6
S21400A4B0FE74296864E67F01E7195B00FB731100F0
S21400A4C05EE6214B19605BE67F01E7195B007B7156
S21400A4D0110055E65B46E318D97C00208C465946A9
S21400A4E0D8610855780133B261460019184EB04756
S21400A4F05B4620221B5D296813435A4613553FE6E8
S21400A500012021787F23194000232170E361AFE604
S21400A510010035E67F01E7195B007B7311002FE62B
S21400A52000220C4901330A709BB247E601339BB206
S21400A53044E6581C80B29BE6013080B2E2E7C04693
S21400A5400C0800208CF3010004080020CD630000F6
S21400A550119E0000B4060020F0B54646D6464F468B
S21400A5608846C0B500283CDB60233C4CE35C7F2B70
S21400A5703CD860260327802300217D01635563199C
S21400A580D961C3B2A619994693073CD5344B00014E
S21400A5901B6834499A468244534602229A5E530008
S21400A5A09B18314A9B00D3181889304B00029847F5
S21400A5B07B00DF192E4BFF00DF19534652469B687F
S21400A5C0D26801333861934200D3F86001235B42BE
S21400A5D0424630004946274EB0472022635D13436B
S21400A5E063551CBC90469946A246F0BD74230121D3
S21400A5F0E35C1140834208D02023E35C7F2B07D81E
S21400A60020260127B7E75023E2E70029B1D1F3E778
S21400A6103423E35C984217D04023E35C7F2B02D8B8
S21400A62040260227A7E75423E35C984212D05A211B
S21400A630638F615A8B420AD20B00402602277A218A
S21400A640615A994297D994E70029D9D1E4E72026A0
S21400A6500127F4E70029E3D1E9E7C04670070020A8
S21400A660F407002030750000B8D7010099BA000042
S21400A6700C080020119E00009A4200D288547047B1
S21400A6807047C046F0B54E4645465746DE46E0B5EE
S21400A6908FB0984618AB20CB02921B781D9A049375
S21400A6A01A9B060099468023DB001A400F0005928D
S21400A6B01023002D68D11D9999430B00002A6CD1F8
S21400A6C01D9103921D9A6123920664D4B84ADBB2A8
S21400A6D00A3B934606A901228C4601934B465242FA
S21400A6E062441A93B146BA46002417001A9E08E040
S21400A6F03033DBB201343B55B54210D3202C0ED09C
S21400A700050031002800D847CBB20929F0D9019AB4
S21400A710013494466344DBB23B55B542EED21A96FA
S21400A7201A9B4E46994602231D9A57461A40934650
S21400A7303DD0039B002B00D184E0059B002B00D06E
S21400A740D8E0002C5ED14B46102B00D165E1022BE1
S21400A75000D14EE106AB9A463023524601241370D0
S21400A760049B002B00D1D0E0631C019306AB9A46F5
S21400A7702D23524613551D9B9B0703D11C9B019A04
S21400A780934270D8029D83E01D9A1A4003921D9A48
S21400A790612392069AD5412398E702221D99002448
S21400A7A011408B461D93DBD1002300240393012325
S21400A7B01D9A1A401C9B9346002B00D1B2E0002A3B
S21400A7C000D1EEE0049B002B03D11D9A0C331342FC
S21400A7D002D01C9B013B1C931B9BA34200D8BAE0F3
S21400A7E0202C00D0A3E01C9B202B00D8CAE0039BA3
S21400A7F09B46002B28D0059B002B00D077E000233B
S21400A80020249B461B9BA34203D01C9BA34200D044
S21400A81070E0631E4A46002B00D1F1E0102A00D1FA
S21400A82005E106AA92464A46022A07D15344622206
S21400A8301A70202C08D006AA2300924630225146D1
S21400A8405C1CCA54202C8BD11D9B9B0705D0202353
S21400A850019306AB029D9A461AE020231A00019344
S21400A8601C9B93425CD9029A1C9913008C46634445
S21400A8701D00019BED1A541C434639002020B047AA
S21400A8802200AC42F7D1019B002B15D006AB9A46AE
S21400A890019B2A005C1E5444A94600E01C00551C7F
S21400A8A0434620783900B047631E2A00A245F5D1FA
S21400A8B0019B4D469C4665445B46002B0FD0029B91
S21400A8C0EC1A1C9B9C420AD22A0099460135434644
S21400A8D0390020200134B0472A00A145F6D82800C8
S21400A8E00FB03CBC90469946A246AB46F0BD00234E
S21400A8F020249B464B46102B5CD0022B99D1202C53
S21400A900A2D006AB1B19013491E71D9B5B0740D410
S21400A9101D9B1B075AD41D9B019422009B079FD0AA
S21400A920029DB0E71B9BA34211D9202C0FD006AA8C
S21400A930012394465B4263449A461B9A3023514651
S21400A94001E0202C03D001340B55A242F9D85B4617
S21400A950002B00D1EDE61C9B9C4213D21F2C00D985
S21400A96045E706AA012394465B4263449A461C9A2E
S21400A9703023514602E0202C00D138E701340B5535
S21400A9809442F8D100239B46039B002B00D0D4E6CC
S21400A99058E7631C019306AB9A462B235246135581
S21400A9A0E9E61B9BA34200D8C3E6202CBFD1C0E635
S21400A9B091BA00001D9B9B0610D4202C00D143E7C3
S21400A9C006AB1A1901347823137032E7631C01931F
S21400A9D006AB9A46202352461355CCE6202C00D1CF
S21400A9E032E706AA92462300582251460134CA543A
S21400A9F01FE706AB9A46622352461370613B1DE77B
S21400AA00102A1ED006AA92464A46022A00D015E709
S21400AA10622352461370613B10E71D9B9B06E0D4F1
S21400AA2006AB9A46782352461370773B06E71D9A84
S21400AA30023C9206D5D406AA924622001C00524436
S21400AA40C1E71D9B9B06EBD506AB9A46582352469C
S21400AA501370573BF2E6C046F0B55746DE4645460D
S21400AA604E46E0B58DB01F00169B06908A4690466F
S21400AA709B46002900D1C5E100243878250000282F
S21400AA8065D0CC4B99465B46D3460793C24609E051
S21400AA90651C22005346069C5946A0472C00387871
S21400AAA0002851D001372528F2D10423387898465B
S21400AAB0023B9C460300203B791CDBB200250E00BF
S21400AAC0102B0ED84A469B00D3589F4601230F00F2
S21400AAD01D433878791C0300203BDBB20E00102B98
S21400AAE0F0D90300303B092B43D9002398462A2887
S21400AAF06CD0002308932E2853D00300683BDBB2AB
S21400AB00122B61D8AC4A9B00D3589F4663460F0071
S21400AB101D43DEE743460F001D43DAE710230F0010
S21400AB201D43D6E708230F001D43D2E780235B00B2
S21400AB3078781D43771C0300253BDBB2532BA7D840
S21400AB409E4A9B00D3589F46D0462500DA462A00E8
S21400AB50A84501D843465A1E434651460020069C47
S21400AB60A04728000DB03CBC90469946A246AB468E
S21400AB70F0BD0023020001E00F0001319800C0186C
S21400AB80400080180A78030010003038303B09284F
S21400AB90F2D998460023BE1C10000F0008932E28FA
S21400ABA0ABD180237878DB001D430300303B092BB4
S21400ABB000D82AE12A2800D13BE10300683BDBB23B
S21400ABC037000136122B9DD93700B4E7079B04CB1C
S21400ABD09046002A00DA0BE17878BE1C07930F0037
S21400ABE087E7079B04CB0A93089B07921078002BF5
S21400ABF000D029E1002800D120E202261300764288
S21400AC00721C190094460992614401E08B4206D0FA
S21400AC1001331A78002AF9D1079A9B1A09938026DD
S21400AC20F6002E4005D0099B1900089B994200D9D2
S21400AC30099302232B400B9300D195E1002800D105
S21400AC407DE1002E00D133E1089B22001E19079BF0
S21400AC501C1B434607933B00A0465F46069C9B464C
S21400AC6009E053463900551CA0474346585D002866
S21400AC7000D13EE12A009642F3D1079B3400984665
S21400AC805B46BB461F000B9B002B00D057E10A9B80
S21400AC90079304E721231D43193B0493089B079E53
S21400ACA003931023029300230595019308CE009387
S21400ACB022005346424C59460698A0470796040081
S21400ACC0EDE6079B04330893631C09931E00AB074D
S21400ACD000D415E1079B2200187859465346069D76
S21400ACE0A84743464444012B00D87EE13B00A046DB
S21400ACF057465C469A463200069E551C3B0021008D
S21400AD002020B0472A00A845F7D15346A346BA46A6
S21400AD1044461F00089B0793C1E6782800D168E1E7
S21400AD20582800D196E06F2800D149E1622800D16A
S21400AD305DE110232A009A4313008022D2002A40A5
S21400AD40692800D08AE1002A00D037E180229200EC
S21400AD501540F73AFF3A002D00D0A0E607990D1DE2
S21400AD60D90500D550E1590600D537E1190600D4BB
S21400AD7066E107990020095ECE1788197040059392
S21400AD8043460493089BC90F0393029201910090D7
S21400AD90220053460A4C59460698A04707950400D9
S21400ADA07DE6651C22005346069C59462520A04792
S21400ADB02C0074E6ACF10100F0F101003CF2010059
S21400ADC085A6000078786C2800D18CE080235B0094
S21400ADD01D43771CAFE680239B0078781D43771CC5
S21400ADE0A9E67878682879D08023771C1D43A2E6E8
S21400ADF002221543424652427878BE1C904607937C
S21400AE000F0076E6974B069336E60023020000E036
S21400AE103E009800C01840008018727803001100A9
S21400AE203039771C303B0929F2D9089310000236D6
S21400AE3063E6079BB87802CBFE1CCA43D2171140C4
S21400AE4008910793023758E6002800D1F5E05E1E09
S21400AE501300D5E60C232A009A43143313436A05DD
S21400AE6000D4A5E0102201218B438025AD001D40B3
S21400AE70692800D16FE7642800D16CE7002D00D068
S21400AE800DE607990E1DD90500D5CCE0590600D56C
S21400AE90A8E0190600D4D9E0079909880593434627
S21400AEA00493089B02920393002300910193FFE60C
S21400AEB0079B22001E1B33005E46BB4657469A463B
S21400AEC0069D3B003100541CA8475346185D2200DF
S21400AED00028F6D1BA465F46B346D4E6C023B87813
S21400AEE01D43033727E6C0239B00B8781D4303376E
S21400AEF021E6079B2C0098465B46BB461F00C2E631
S21400AF004346012B00D8A6E0651E45442200B846FD
S21400AF10069E5F46099C00E0013453463900202017
S21400AF20B0472200AC42F7D1BB4647460134079BE8
S21400AF302A00187859465346069DA847EAE6099B14
S21400AF402200984500D8A2E64444B8465F46069ECE
S21400AF50E41A551C534639002020B0472A00A54263
S21400AF60F7D1BB46474692E6099A531C904570D9DE
S21400AF7043461B199B1A09961E003B005F469B46DC
S21400AF802200069C551C534639002020A0472A0064
S21400AF90B542F7D15B46BB461F0043462C00013343
S21400AFA0099E0993079B1878002800D049E66EE6AC
S21400AFB0802292001540F13AFF3A5FE70A2252E7F4
S21400AFC008222B008021C9001940642848D1002996
S21400AFD000D048E78025AD001D40BCE607990978FB
S21400AFE00800CCE60799097858E7099C92E6022201
S21400AFF0E7E780211022C90029400C239D432B003F
S21400B000002900D02FE730E70799096805934346E3
S21400B0100493089B02920393CB0F0193CB17C91896
S21400B02059400091B4E6059343460493089B029268
S21400B0300393079B01951B6839E600230993EEE509
S21400B04007990968CE178819704098E60799096825
S21400B05024E70993A8E72500099C68E70A22B1E7D8
S21400B0601D00CAE781A600000CB410B584B006AC7B
S21400B07008CC0A00039400940100044C0448A0473E
S21400B08004B010BC08BC02B01847C04659AA00005D
S21400B09079A6000070B5124D2E68002E1CD0114BFC
S21400B0A0114930009847114C114B4C4330000E4963
S21400B0B0984703051B1A9B001B189B001B181B01B7
S21400B0C01B1A9B00181A8000201802D5094B9C46B4
S21400B0D0604403002B6070BD074B1800FAE7C046BB
S21400B0E04C00002091BA00001DF30100A7410000AB
S21400B0F085B90000FFFFFF7F42CE0C1F014B186092
S21400B1007047C0464C0000208323C82140099B009E
S21400B110044A181A490013688B42FCD91368834204
S21400B120F9D27047C0590020014B186980B27047A9
S21400B130003000420022554B70B51A70802305007F
S21400B14053489B0518601C320021524B98471E211D
S21400B1500220514A352453688B43034353604F4BB8
S21400B16016399A690A439A614D4A073911700D31AA
S21400B17099610F234B490E5D3340702633430126F9
S21400B1800B5516340B5D33430B55474B50219360DC
S21400B190464B5360464B53802F22464B9A640F3AD9
S21400B1A0DA6424329854413A585C0242FCD0802338
S21400B1B03B4C5B00A360A1230022DB026360374B9D
S21400B1C01A725A729A72DA723B4A1A623B4B3C4ABD
S21400B1D063803C4B63803C4B1A6080223B4B1A607A
S21400B1E03B4B984728003B4B98473B4B98473B4B7D
S21400B1F03B4A10251A8086223A4B12011A803A4A98
S21400B2003A4915703A4A022011808021394A49018C
S21400B210118002219A790A439A71402219880143C3
S21400B2201980354B35491A70354B364A1D70364BEA
S21400B2301A60364B364A1A80364B6380364B1A886D
S21400B240114319802221354A11801A883449024355
S21400B2501A80344A34485A8080239B05334A1B6838
S21400B2601A61334B9847334B984737210F230D4AC3
S21400B270505C034070200343012053541831535C44
S21400B280034353542C4B636070BDC046001000400F
S21400B290B80600205DBD00000040004100040040EC
S21400B2A0000C0040004400410510000005010100AC
S21400B2B00145000000080040FE3F05002140000058
S21400B2C00E00020014400000000800420444004142
S21400B2D06D9C0000C19C000069B50000020C004097
S21400B2E01B400000002C00420E2C00427FBBFFFFDC
S21400B2F0182C00420A2C0042052C004208080000C8
S21400B300000400420100340604040042080400421F
S21400B310130200001C400000003000420A300042C9
S21400B32059B40000104000009CF401008CF40100A9
S21400B33069B40000C1B4000001000400014B1869A4
S21400B3407047C046003000420E4A4308944610B587
S21400B3506344C2070ED50F221C7809012240114310
S21400B360C9B21970084B01229C4660440378134307
S21400B370037010BD0F241A782140A24311431970A0
S21400B380F0E7C046304400414044004100280DD05C
S21400B39033210F230B4A505C034030200343012027
S21400B3A053541431535C03435354704733210F22D4
S21400B3B0044B585C024001205A5414315A5C024334
S21400B3C05A54F2E70044004110B5024B1B689B6CD0
S21400B3D0984710BDB020000010B5024B1B68DB6C10
S21400B3E0984710BDB020000010B5024B1B681B6DBF
S21400B3F0984710BDB020000010B5024B1B685B6D6F
S21400B400984710BDB020000010B5024B1B681B6E9D
S21400B410984710BDB020000010B5024B1B689B6E0D
S21400B420984710BDB020000010B5024B1B68DB6EBD
S21400B430984710BDB020000010B5024B1B681B6F6C
S21400B440984710BDB020000010B5024B1B685B6F1C
S21400B450984710BDB02000005C2801D8014870470E
S21400B4600020FCE7480A00200E4B0F4A18611A60BD
S21400B4700E4AD9629A610E4A5A610E4A9A600E4A7C
S21400B480DA600E4A5A6011221A63EF325A63C022FB
S21400B49092029A63FF2252429A878022920512688D
S21400B4A053607047C40A0020D4090020040B002013
S21400B4B0A40A002074080020400A00207409002016
S21400B4C010B5024B1B68DB69984710BDB020000022
S21400B4D010B5024B1B681B6A984710BDB0200000D1
S21400B4E0F0B58024E400A41A8C4200D90C001D4B51
S21400B4F09200D518002C2ADD0832D2180023190035
S21400B500904259410A00010008318D425B410B21EF
S21400B5101343621E9142924152421A4218D00300CF
S21400B5202B435B0714D163089C4601002A000023C6
S21400B530C0C90133C0C26345FAD1012322009A4331
S21400B5409300C018EB18944201D002681A60F0BD50
S21400B5500022002381580133A95004329C42F9D1BD
S21400B560F5E7C046C0490020F8B50322DE46574638
S21400B5704E464546504BE0B51A60504B504C9946E7
S21400B5804A46504B0721D3604F4B0A2053614F4B1E
S21400B5904F4F13614F4B504D936180224F4B92009B
S21400B5A01A604F4B4F4E23604F4B984704224F4B29
S21400B5B010215A600223984642465C33E254013317
S21400B5C0E2544B4B4B4A80201A804B4AFF241170A2
S21400B5D04A4A400093465946494A0A60C221494AA7
S21400B5E0890010607A58A2437A50474A38601A8019
S21400B5F0464A474C1A8001234246236033602B603C
S21400B600E263002262639246424A05211360BE331B
S21400B6106364414BF83823648023DB02A3618023F4
S21400B6209B02A362304A90474246F26352463B4B27
S21400B63072630D32FF321A605A46374B0421336468
S21400B640374B04201360374B374A1A800A3A1A8061
S21400B65043465246EB634B461A60832342469B00A2
S21400B6602B642B6CC13BFF3B6B63304B1A60802313
S21400B6705B02AB6198462E4B2B621B4B98472D4BBB
S21400B680802033628023C4225B0433622A4B40004E
S21400B69020622B602360FF24402133609200BB5859
S21400B6A0A3430B43BB5043463B603CBC9046994685
S21400B6B0A246AB46F8BDC04610710041C0590020F6
S21400B6C000440041400B002010000060C0490020EC
S21400B6D000E100E0E059002000200042184400414C
S21400B6E01005CFC00028004249B30000000C0040FF
S21400B6F0020C004007400000000400420404004220
S21400B70000003104140400421A4000001B400000F0
S21400B71000240042482400423D060000442800421F
S21400B72002002906080400420E03000044200042DE
S21400B7300440000001400000020800008023034A85
S21400B7405B0011680B4313607047C0461804004244
S21400B75092220349FF320B689342FCD17047C046E1
S21400B760C0590020F0B55746DE464E464546E0B581
S21400B77093B0844610001CAA14881DAA1788182B9C
S21400B78000D9ECE06246002A00D1EFE0272800DD71
S21400B790E5E00A78002A00D1E1E003252E003D40CE
S21400B7A09F00FF18BF01019701318A460199DB000F
S21400B7B041184900894601339F00FB18DF001097A7
S21400B7C06C4F6D49B944DF00B84640448046BB46DE
S21400B7D0380088442731594402910199264049424D
S21400B7E0490011911901030028300E9008005030CE
S21400B7F00D90584650300F910C900800A0310B91D8
S21400B800594678310A910100F03009905846A03028
S21400B810089008004130FF3007905846C830069020
S21400B8200800E1319130F033A408FF30FF31049373
S21400B830E4B205900391514B0BE001218B46013198
S21400B840DA448B460139D9448B46D844002A00D1C5
S21400B85085E06146D200505C6244C143C9B24900EB
S21400B8604000595A185A69437043014348460180BC
S21400B870414610980092091A01980C545778119A6C
S21400B8804A441000FA43D2B252007F009A5ADF5B55
S21400B8906A43774317430F9A875242461470009ABA
S21400B8A09278D743FFB27F005200DF5B9A5A6F430D
S21400B8B0724317430D9A87520E9A8C54009AD27888
S21400B8C0D743FFB27F005200DF5B9A5A6F43724342
